{
  "contractName": "Escrow",
  "abi": [
    {
      "inputs": [],
      "stateMutability": "nonpayable",
      "type": "constructor"
    },
    {
      "anonymous": false,
      "inputs": [
        {
          "indexed": false,
          "internalType": "address",
          "name": "depositor_address",
          "type": "address"
        },
        {
          "indexed": false,
          "internalType": "string",
          "name": "deposite_status",
          "type": "string"
        }
      ],
      "name": "DepositeStatusUpdate",
      "type": "event"
    },
    {
      "inputs": [
        {
          "internalType": "address payable",
          "name": "_recipient",
          "type": "address"
        }
      ],
      "name": "depositeCreate",
      "outputs": [],
      "stateMutability": "payable",
      "type": "function",
      "payable": true
    },
    {
      "inputs": [],
      "name": "confirmServiceDelivery",
      "outputs": [],
      "stateMutability": "nonpayable",
      "type": "function"
    },
    {
      "inputs": [
        {
          "internalType": "address",
          "name": "_depositor",
          "type": "address"
        }
      ],
      "name": "unlockDeposite",
      "outputs": [],
      "stateMutability": "nonpayable",
      "type": "function"
    },
    {
      "inputs": [],
      "name": "withdrawDeposite",
      "outputs": [],
      "stateMutability": "nonpayable",
      "type": "function"
    },
    {
      "inputs": [
        {
          "internalType": "address",
          "name": "depositorAddress",
          "type": "address"
        }
      ],
      "name": "getDepositStatus",
      "outputs": [
        {
          "components": [
            {
              "internalType": "address payable",
              "name": "depositor",
              "type": "address"
            },
            {
              "internalType": "address payable",
              "name": "recipient",
              "type": "address"
            },
            {
              "internalType": "uint256",
              "name": "amount",
              "type": "uint256"
            },
            {
              "internalType": "uint256",
              "name": "depositeTime",
              "type": "uint256"
            },
            {
              "internalType": "enum Escrow.CONFIRMATION_STATUS",
              "name": "confirmation_status",
              "type": "uint8"
            }
          ],
          "internalType": "struct Escrow.Deposite",
          "name": "",
          "type": "tuple"
        }
      ],
      "stateMutability": "view",
      "type": "function",
      "constant": true
    },
    {
      "inputs": [],
      "name": "getContractBalance",
      "outputs": [
        {
          "internalType": "uint256",
          "name": "",
          "type": "uint256"
        }
      ],
      "stateMutability": "view",
      "type": "function",
      "constant": true
    }
  ],
  "bytecode": "0x608060405234801561001057600080fd5b50336000806101000a81548173ffffffffffffffffffffffffffffffffffffffff021916908373ffffffffffffffffffffffffffffffffffffffff160217905550611c7a806100606000396000f3fe6080604052600436106100555760003560e01c806345b63dbb1461005a57806355aab0021461008357806362094ef01461009a5780636f9fb98a146100b1578063d3e09287146100dc578063da4c8d59146100f8575b600080fd5b34801561006657600080fd5b50610081600480360381019061007c9190611608565b610135565b005b34801561008f57600080fd5b506100986105e4565b005b3480156100a657600080fd5b506100af610d37565b005b3480156100bd57600080fd5b506100c6611077565b6040516100d3919061187b565b60405180910390f35b6100f660048036038101906100f19190611631565b61107f565b005b34801561010457600080fd5b5061011f600480360381019061011a9190611608565b6112f6565b60405161012c9190611860565b60405180910390f35b3360008054906101000a900473ffffffffffffffffffffffffffffffffffffffff1673ffffffffffffffffffffffffffffffffffffffff168173ffffffffffffffffffffffffffffffffffffffff161461018e57600080fd5b8160011515600260008373ffffffffffffffffffffffffffffffffffffffff1673ffffffffffffffffffffffffffffffffffffffff16815260200190815260200160002060009054906101000a900460ff161515146101ec57600080fd5b8260016002811115610227577f4e487b7100000000000000000000000000000000000000000000000000000000600052602160045260246000fd5b600160008373ffffffffffffffffffffffffffffffffffffffff1673ffffffffffffffffffffffffffffffffffffffff16815260200190815260200160002060040160009054906101000a900460ff1660028111156102af577f4e487b7100000000000000000000000000000000000000000000000000000000600052602160045260246000fd5b146102b957600080fd5b6000600160008673ffffffffffffffffffffffffffffffffffffffff1673ffffffffffffffffffffffffffffffffffffffff1681526020019081526020016000206040518060a00160405290816000820160009054906101000a900473ffffffffffffffffffffffffffffffffffffffff1673ffffffffffffffffffffffffffffffffffffffff1673ffffffffffffffffffffffffffffffffffffffff1681526020016001820160009054906101000a900473ffffffffffffffffffffffffffffffffffffffff1673ffffffffffffffffffffffffffffffffffffffff1673ffffffffffffffffffffffffffffffffffffffff16815260200160028201548152602001600382015481526020016004820160009054906101000a900460ff166002811115610410577f4e487b7100000000000000000000000000000000000000000000000000000000600052602160045260246000fd5b6002811115610448577f4e487b7100000000000000000000000000000000000000000000000000000000600052602160045260246000fd5b815250509050600081604001519050816020015173ffffffffffffffffffffffffffffffffffffffff166108fc829081150290604051600060405180830381858888f193505050501580156104a1573d6000803e3d6000fd5b50600160008773ffffffffffffffffffffffffffffffffffffffff1673ffffffffffffffffffffffffffffffffffffffff168152602001908152602001600020600080820160006101000a81549073ffffffffffffffffffffffffffffffffffffffff02191690556001820160006101000a81549073ffffffffffffffffffffffffffffffffffffffff0219169055600282016000905560038201600090556004820160006101000a81549060ff02191690555050600260008773ffffffffffffffffffffffffffffffffffffffff1673ffffffffffffffffffffffffffffffffffffffff16815260200190815260200160002060006101000a81549060ff02191690557f38da4dbd4a668c1f1102fc774d28c740ea146218afde0ff960e9af54bc8e7215866040516105d49190611804565b60405180910390a1505050505050565b3360011515600260008373ffffffffffffffffffffffffffffffffffffffff1673ffffffffffffffffffffffffffffffffffffffff16815260200190815260200160002060009054906101000a900460ff1615151461064257600080fd5b336000600160008373ffffffffffffffffffffffffffffffffffffffff1673ffffffffffffffffffffffffffffffffffffffff1681526020019081526020016000206040518060a00160405290816000820160009054906101000a900473ffffffffffffffffffffffffffffffffffffffff1673ffffffffffffffffffffffffffffffffffffffff1673ffffffffffffffffffffffffffffffffffffffff1681526020016001820160009054906101000a900473ffffffffffffffffffffffffffffffffffffffff1673ffffffffffffffffffffffffffffffffffffffff1673ffffffffffffffffffffffffffffffffffffffff16815260200160028201548152602001600382015481526020016004820160009054906101000a900460ff16600281111561079a577f4e487b7100000000000000000000000000000000000000000000000000000000600052602160045260246000fd5b60028111156107d2577f4e487b7100000000000000000000000000000000000000000000000000000000600052602160045260246000fd5b815250509050620151808160600151426107ec91906118a7565b10156107f757600080fd5b336000600160008373ffffffffffffffffffffffffffffffffffffffff1673ffffffffffffffffffffffffffffffffffffffff1681526020019081526020016000206040518060a00160405290816000820160009054906101000a900473ffffffffffffffffffffffffffffffffffffffff1673ffffffffffffffffffffffffffffffffffffffff1673ffffffffffffffffffffffffffffffffffffffff1681526020016001820160009054906101000a900473ffffffffffffffffffffffffffffffffffffffff1673ffffffffffffffffffffffffffffffffffffffff1673ffffffffffffffffffffffffffffffffffffffff16815260200160028201548152602001600382015481526020016004820160009054906101000a900460ff16600281111561094f577f4e487b7100000000000000000000000000000000000000000000000000000000600052602160045260246000fd5b6002811115610987577f4e487b7100000000000000000000000000000000000000000000000000000000600052602160045260246000fd5b8152505090506002808111156109c6577f4e487b7100000000000000000000000000000000000000000000000000000000600052602160045260246000fd5b81608001516002811115610a03577f4e487b7100000000000000000000000000000000000000000000000000000000600052602160045260246000fd5b14610a0d57600080fd5b6000600160003373ffffffffffffffffffffffffffffffffffffffff1673ffffffffffffffffffffffffffffffffffffffff1681526020019081526020016000206040518060a00160405290816000820160009054906101000a900473ffffffffffffffffffffffffffffffffffffffff1673ffffffffffffffffffffffffffffffffffffffff1673ffffffffffffffffffffffffffffffffffffffff1681526020016001820160009054906101000a900473ffffffffffffffffffffffffffffffffffffffff1673ffffffffffffffffffffffffffffffffffffffff1673ffffffffffffffffffffffffffffffffffffffff16815260200160028201548152602001600382015481526020016004820160009054906101000a900460ff166002811115610b64577f4e487b7100000000000000000000000000000000000000000000000000000000600052602160045260246000fd5b6002811115610b9c577f4e487b7100000000000000000000000000000000000000000000000000000000600052602160045260246000fd5b815250509050806000015173ffffffffffffffffffffffffffffffffffffffff166108fc82604001519081150290604051600060405180830381858888f19350505050158015610bf0573d6000803e3d6000fd5b50600160003373ffffffffffffffffffffffffffffffffffffffff1673ffffffffffffffffffffffffffffffffffffffff168152602001908152602001600020600080820160006101000a81549073ffffffffffffffffffffffffffffffffffffffff02191690556001820160006101000a81549073ffffffffffffffffffffffffffffffffffffffff0219169055600282016000905560038201600090556004820160006101000a81549060ff02191690555050600260003373ffffffffffffffffffffffffffffffffffffffff1673ffffffffffffffffffffffffffffffffffffffff16815260200190815260200160002060006101000a81549060ff02191690557f38da4dbd4a668c1f1102fc774d28c740ea146218afde0ff960e9af54bc8e72158160000151604051610d2791906117a8565b60405180910390a1505050505050565b3360011515600260008373ffffffffffffffffffffffffffffffffffffffff1673ffffffffffffffffffffffffffffffffffffffff16815260200190815260200160002060009054906101000a900460ff16151514610d9557600080fd5b336000600160008373ffffffffffffffffffffffffffffffffffffffff1673ffffffffffffffffffffffffffffffffffffffff1681526020019081526020016000206040518060a00160405290816000820160009054906101000a900473ffffffffffffffffffffffffffffffffffffffff1673ffffffffffffffffffffffffffffffffffffffff1673ffffffffffffffffffffffffffffffffffffffff1681526020016001820160009054906101000a900473ffffffffffffffffffffffffffffffffffffffff1673ffffffffffffffffffffffffffffffffffffffff1673ffffffffffffffffffffffffffffffffffffffff16815260200160028201548152602001600382015481526020016004820160009054906101000a900460ff166002811115610eed577f4e487b7100000000000000000000000000000000000000000000000000000000600052602160045260246000fd5b6002811115610f25577f4e487b7100000000000000000000000000000000000000000000000000000000600052602160045260246000fd5b815250509050600280811115610f64577f4e487b7100000000000000000000000000000000000000000000000000000000600052602160045260246000fd5b81608001516002811115610fa1577f4e487b7100000000000000000000000000000000000000000000000000000000600052602160045260246000fd5b14610fab57600080fd5b60018060003373ffffffffffffffffffffffffffffffffffffffff1673ffffffffffffffffffffffffffffffffffffffff16815260200190815260200160002060040160006101000a81548160ff02191690836002811115611036577f4e487b7100000000000000000000000000000000000000000000000000000000600052602160045260246000fd5b02179055507f38da4dbd4a668c1f1102fc774d28c740ea146218afde0ff960e9af54bc8e72153360405161106a9190611832565b60405180910390a1505050565b600047905090565b3360001515600260008373ffffffffffffffffffffffffffffffffffffffff1673ffffffffffffffffffffffffffffffffffffffff16815260200190815260200160002060009054906101000a900460ff161515146110dd57600080fd5b6110e6816114f0565b600033905060006040518060a001604052808373ffffffffffffffffffffffffffffffffffffffff1681526020018573ffffffffffffffffffffffffffffffffffffffff168152602001348152602001428152602001600280811115611175577f4e487b7100000000000000000000000000000000000000000000000000000000600052602160045260246000fd5b815250905080600160008473ffffffffffffffffffffffffffffffffffffffff1673ffffffffffffffffffffffffffffffffffffffff16815260200190815260200160002060008201518160000160006101000a81548173ffffffffffffffffffffffffffffffffffffffff021916908373ffffffffffffffffffffffffffffffffffffffff16021790555060208201518160010160006101000a81548173ffffffffffffffffffffffffffffffffffffffff021916908373ffffffffffffffffffffffffffffffffffffffff160217905550604082015181600201556060820151816003015560808201518160040160006101000a81548160ff021916908360028111156112ad577f4e487b7100000000000000000000000000000000000000000000000000000000600052602160045260246000fd5b02179055509050507f38da4dbd4a668c1f1102fc774d28c740ea146218afde0ff960e9af54bc8e721581600001516040516112e891906117d6565b60405180910390a150505050565b6112fe61154b565b3360008054906101000a900473ffffffffffffffffffffffffffffffffffffffff1673ffffffffffffffffffffffffffffffffffffffff168173ffffffffffffffffffffffffffffffffffffffff161461135757600080fd5b600160008473ffffffffffffffffffffffffffffffffffffffff1673ffffffffffffffffffffffffffffffffffffffff1681526020019081526020016000206040518060a00160405290816000820160009054906101000a900473ffffffffffffffffffffffffffffffffffffffff1673ffffffffffffffffffffffffffffffffffffffff1673ffffffffffffffffffffffffffffffffffffffff1681526020016001820160009054906101000a900473ffffffffffffffffffffffffffffffffffffffff1673ffffffffffffffffffffffffffffffffffffffff1673ffffffffffffffffffffffffffffffffffffffff16815260200160028201548152602001600382015481526020016004820160009054906101000a900460ff1660028111156114ac577f4e487b7100000000000000000000000000000000000000000000000000000000600052602160045260246000fd5b60028111156114e4577f4e487b7100000000000000000000000000000000000000000000000000000000600052602160045260246000fd5b81525050915050919050565b6001600260008373ffffffffffffffffffffffffffffffffffffffff1673ffffffffffffffffffffffffffffffffffffffff16815260200190815260200160002060006101000a81548160ff02191690831515021790555050565b6040518060a00160405280600073ffffffffffffffffffffffffffffffffffffffff168152602001600073ffffffffffffffffffffffffffffffffffffffff1681526020016000815260200160008152602001600060028111156115d8577f4e487b7100000000000000000000000000000000000000000000000000000000600052602160045260246000fd5b81525090565b6000813590506115ed81611c16565b92915050565b60008135905061160281611c2d565b92915050565b60006020828403121561161a57600080fd5b6000611628848285016115de565b91505092915050565b60006020828403121561164357600080fd5b6000611651848285016115f3565b91505092915050565b6116638161193c565b82525050565b611672816118ed565b82525050565b611681816118db565b82525050565b6116908161194e565b82525050565b60006116a3604d83611896565b91506116ae826119e2565b606082019050919050565b60006116c6604683611896565b91506116d182611a57565b606082019050919050565b60006116e9609183611896565b91506116f482611acc565b60a082019050919050565b600061170c604383611896565b915061171782611b8d565b606082019050919050565b60a0820160008201516117386000850182611669565b50602082015161174b6020850182611669565b50604082015161175e604085018261178a565b506060820151611771606085018261178a565b5060808201516117846080850182611687565b50505050565b61179381611932565b82525050565b6117a281611932565b82525050565b60006040820190506117bd600083018461165a565b81810360208301526117ce816116b9565b905092915050565b60006040820190506117eb600083018461165a565b81810360208301526117fc816116ff565b905092915050565b60006040820190506118196000830184611678565b818103602083015261182a81611696565b905092915050565b60006040820190506118476000830184611678565b8181036020830152611858816116dc565b905092915050565b600060a0820190506118756000830184611722565b92915050565b60006020820190506118906000830184611799565b92915050565b600082825260208201905092915050565b60006118b282611932565b91506118bd83611932565b9250828210156118d0576118cf611984565b5b828203905092915050565b60006118e682611912565b9050919050565b60006118f882611912565b9050919050565b600081905061190d82611c02565b919050565b600073ffffffffffffffffffffffffffffffffffffffff82169050919050565b6000819050919050565b600061194782611960565b9050919050565b6000611959826118ff565b9050919050565b600061196b82611972565b9050919050565b600061197d82611912565b9050919050565b7f4e487b7100000000000000000000000000000000000000000000000000000000600052601160045260246000fd5b7f4e487b7100000000000000000000000000000000000000000000000000000000600052602160045260246000fd5b7f7061796d656e742073656e7420746f20726563697069656e742c20537461747560008201527f7320666f722074686973206465706f7369746f722773206465706f736974652060208201527f6973203a20494e41435449564500000000000000000000000000000000000000604082015250565b7f4465706f736974652057495448445241574e2c2053746174757320666f72207460008201527f686973206465706f7369746f722773206465706f73697465206973203a20494e60208201527f4143544956450000000000000000000000000000000000000000000000000000604082015250565b7f7061796d656e7420666f7220726563697069656e7420434f4e4649524d45442c60008201527f2053746174757320666f722074686973206465706f7369746f7227732064657060208201527f6f73697465206973203a2046494e414c495a455f5041594d454e54202c20706c60408201527f65617365207761697420666f7220746865206172626974726f7220746f20756e60608201527f6c6f636b20746865206465706f73697465000000000000000000000000000000608082015250565b7f4465706f7369746520435245415445442c2053746174757320666f722074686960008201527f73206465706f7369746f722773206465706f73697465206973203a2050454e4460208201527f494e470000000000000000000000000000000000000000000000000000000000604082015250565b60038110611c1357611c126119b3565b5b50565b611c1f816118db565b8114611c2a57600080fd5b50565b611c36816118ed565b8114611c4157600080fd5b5056fea2646970667358221220b50bca91b2fe711cc283be55a8cf655a1f4dc52e9bf1641f1a1b0c52847c055f64736f6c63430008040033",
  "immutableReferences": {},
  "source": "pragma solidity ^0.8.4;\r\n\r\ncontract Escrow{\r\n    \r\n    \r\n    //  ==== > Constructor\r\n    \r\n    constructor(){\r\n        arbitror = msg.sender;  // making them admin of the contract so that certain features can only be available to them\r\n    }\r\n    \r\n    // ===== > State Variables \r\n    \r\n    address arbitror;\r\n    \r\n    enum CONFIRMATION_STATUS { \r\n        INACTIVE            ,           // 0, this is the default status \r\n        FINALIZE_PAYMENT    ,           // 2, when depositor confirms that recipient can recieve the money\r\n        PENDING                         // 5, when the deposite is still active but the payment to the recipient is yet pending\r\n    }\r\n    \r\n    struct Deposite{\r\n        address payable depositor               ;\r\n        address payable recipient               ;\r\n        uint amount                             ;\r\n        uint depositeTime                       ;\r\n        CONFIRMATION_STATUS confirmation_status ;\r\n    }\r\n    \r\n    mapping (address => Deposite) deposites;                // to have a mapping of all the deposites;\r\n    \r\n    mapping (address => bool) disabled_depositor;           // to check if the depositor has any pending deposite\r\n    \r\n    event DepositeStatusUpdate(address depositor_address, string deposite_status); //updates on the deposites\r\n    \r\n    // ====== > Moifiers\r\n    \r\n    modifier checkIfDepositorCanDeposite(address depositorAddress){\r\n        require(disabled_depositor[depositorAddress] == false);\r\n        disableDepositorToDeposite(depositorAddress);\r\n        _;\r\n    }\r\n    \r\n    modifier checkIfArbitror(address _requester){\r\n        require(_requester == arbitror);\r\n        _;\r\n    }\r\n    \r\n    modifier withdrawalTimePermmission(address _requester){\r\n        Deposite memory _depositeForThisAddress = deposites[_requester];\r\n        require(block.timestamp - _depositeForThisAddress.depositeTime >= 1 days); // cheking needs to be done\r\n        _;\r\n    }\r\n    \r\n    modifier depositeStatusPermission( address _requester){\r\n        Deposite memory _depositeForThisAddress = deposites[_requester];\r\n        require(_depositeForThisAddress.confirmation_status == CONFIRMATION_STATUS.PENDING);\r\n        _;\r\n    }\r\n    \r\n    modifier checkIfDipositorIsValid(address _requester){\r\n        require(disabled_depositor[_requester] == true);\r\n        _;\r\n    }\r\n    \r\n    modifier checkIfPaymentHasBeenConfirmedByDepositor(address _depositor){\r\n        require(deposites[_depositor].confirmation_status == CONFIRMATION_STATUS.FINALIZE_PAYMENT);\r\n        _;\r\n    }\r\n    \r\n    \r\n    // ======= > Functions \r\n    \r\n    function depositeCreate(address payable _recipient) external payable checkIfDepositorCanDeposite(msg.sender){\r\n        address payable _depositor = payable(msg.sender);\r\n        Deposite memory _deposite = Deposite(\r\n                                        {\r\n                                            depositor               :   _depositor,\r\n                                            recipient               :   _recipient,\r\n                                            amount                  :   msg.value,\r\n                                            depositeTime            :   block.timestamp,\r\n                                            confirmation_status     :   CONFIRMATION_STATUS.PENDING \r\n                                        }\r\n                                    );\r\n        deposites[_depositor] = _deposite;\r\n        \r\n        emit DepositeStatusUpdate(_deposite.depositor, \"Deposite CREATED, Status for this depositor's deposite is : PENDING\");\r\n    }\r\n    \r\n    function confirmServiceDelivery() external checkIfDipositorIsValid(msg.sender)  depositeStatusPermission(msg.sender) {\r\n        \r\n        deposites[msg.sender].confirmation_status = CONFIRMATION_STATUS.FINALIZE_PAYMENT;\r\n        \r\n        emit DepositeStatusUpdate(msg.sender, \"payment for recipient CONFIRMED, Status for this depositor's deposite is : FINALIZE_PAYMENT , please wait for the arbitror to unlock the deposite\");\r\n    }\r\n    \r\n    function unlockDeposite(address _depositor) external checkIfArbitror(msg.sender) checkIfDipositorIsValid(_depositor) checkIfPaymentHasBeenConfirmedByDepositor( _depositor) {                 // this can only be called by the arbitror\r\n        \r\n        Deposite memory _deposite = deposites[_depositor];\r\n        uint amount_to_be_transferred = _deposite.amount;\r\n        \r\n        _deposite.recipient.transfer(amount_to_be_transferred);\r\n        \r\n        delete deposites[_depositor];\r\n        delete disabled_depositor[_depositor];\r\n        \r\n        emit DepositeStatusUpdate(_depositor,  \"payment sent to recipient, Status for this depositor's deposite is : INACTIVE\");\r\n    }\r\n    \r\n    function withdrawDeposite() external checkIfDipositorIsValid(msg.sender) withdrawalTimePermmission(msg.sender) depositeStatusPermission(msg.sender){    \r\n        \r\n        Deposite memory _deposite = deposites[msg.sender];        \r\n        _deposite.depositor.transfer(_deposite.amount);\r\n        \r\n        delete deposites[msg.sender];\r\n        delete disabled_depositor[msg.sender];\r\n        \r\n        emit DepositeStatusUpdate(_deposite.depositor, \"Deposite WITHDRAWN, Status for this depositor's deposite is : INACTIVE\");\r\n    }\r\n    \r\n    function getDepositStatus(address depositorAddress) external view checkIfArbitror(msg.sender) returns(Deposite memory){ // this can only be called by the arbitror\r\n        return deposites[depositorAddress];\r\n    }\r\n    \r\n    function getContractBalance() external view returns(uint){\r\n        return address(this).balance;\r\n    }\r\n    \r\n    function disableDepositorToDeposite(address _depositorAddress) internal{\r\n        disabled_depositor[_depositorAddress] = true;\r\n    }\r\n    \r\n\r\n}",
  "sourcePath": "C:\\Users\\kamru\\Desktop\\Blockchain Assignment\\Assignment\\contracts\\Escrow.sol",
  "compiler": {
    "name": "solc",
    "version": "0.8.4+commit.c7e474f2.Emscripten.clang"
  },
  "schemaVersion": "3.4.3",
  "updatedAt": "2021-10-10T19:21:35.840Z",
  "networkType": "ethereum",
  "devdoc": {
    "kind": "dev",
    "methods": {},
    "version": 1
  },
  "userdoc": {
    "kind": "user",
    "methods": {},
    "version": 1
  }
}