{
  "contractName": "Escrow",
  "abi": [
    {
      "inputs": [],
      "stateMutability": "nonpayable",
      "type": "constructor"
    },
    {
      "anonymous": false,
      "inputs": [
        {
          "indexed": false,
          "internalType": "address",
          "name": "depositor_address",
          "type": "address"
        },
        {
          "indexed": false,
          "internalType": "string",
          "name": "deposite_status",
          "type": "string"
        }
      ],
      "name": "DepositeStatusUpdate",
      "type": "event"
    },
    {
      "inputs": [
        {
          "internalType": "address payable",
          "name": "_recipient",
          "type": "address"
        }
      ],
      "name": "depositeCreate",
      "outputs": [],
      "stateMutability": "payable",
      "type": "function",
      "payable": true
    },
    {
      "inputs": [],
      "name": "confirmServiceDelivery",
      "outputs": [],
      "stateMutability": "nonpayable",
      "type": "function"
    },
    {
      "inputs": [
        {
          "internalType": "address",
          "name": "_depositor",
          "type": "address"
        }
      ],
      "name": "unlockDeposite",
      "outputs": [],
      "stateMutability": "nonpayable",
      "type": "function"
    },
    {
      "inputs": [],
      "name": "withdrawDeposite",
      "outputs": [],
      "stateMutability": "nonpayable",
      "type": "function"
    },
    {
      "inputs": [
        {
          "internalType": "address",
          "name": "_depositorAddress",
          "type": "address"
        }
      ],
      "name": "getDepositStatus",
      "outputs": [
        {
          "internalType": "string",
          "name": "",
          "type": "string"
        }
      ],
      "stateMutability": "view",
      "type": "function",
      "constant": true
    },
    {
      "inputs": [],
      "name": "getContractBalance",
      "outputs": [
        {
          "internalType": "uint256",
          "name": "",
          "type": "uint256"
        }
      ],
      "stateMutability": "view",
      "type": "function",
      "constant": true
    },
    {
      "inputs": [
        {
          "internalType": "address",
          "name": "_depositorAddress",
          "type": "address"
        }
      ],
      "name": "getDepositInfo",
      "outputs": [
        {
          "components": [
            {
              "internalType": "address payable",
              "name": "depositor",
              "type": "address"
            },
            {
              "internalType": "address payable",
              "name": "recipient",
              "type": "address"
            },
            {
              "internalType": "uint256",
              "name": "amount",
              "type": "uint256"
            },
            {
              "internalType": "uint256",
              "name": "depositeTime",
              "type": "uint256"
            },
            {
              "internalType": "enum Escrow.CONFIRMATION_STATUS",
              "name": "confirmation_status",
              "type": "uint8"
            }
          ],
          "internalType": "struct Escrow.Deposite",
          "name": "",
          "type": "tuple"
        }
      ],
      "stateMutability": "view",
      "type": "function",
      "constant": true
    }
  ],
  "bytecode": "0x608060405234801561001057600080fd5b50336000806101000a81548173ffffffffffffffffffffffffffffffffffffffff021916908373ffffffffffffffffffffffffffffffffffffffff1602179055506127a8806100606000396000f3fe6080604052600436106100705760003560e01c806362094ef01161004e57806362094ef0146100f25780636f9fb98a14610109578063d3e0928714610134578063da4c8d591461015057610070565b806345b63dbb146100755780635287ce121461009e57806355aab002146100db575b600080fd5b34801561008157600080fd5b5061009c60048036038101906100979190611ca0565b61018d565b005b3480156100aa57600080fd5b506100c560048036038101906100c09190611ca0565b6106de565b6040516100d291906120e5565b60405180910390f35b3480156100e757600080fd5b506100f0610913565b005b3480156100fe57600080fd5b50610107611108565b005b34801561011557600080fd5b5061011e6114b4565b60405161012b9190612100565b60405180910390f35b61014e60048036038101906101499190611cc9565b6114bc565b005b34801561015c57600080fd5b5061017760048036038101906101729190611ca0565b611769565b6040516101849190612003565b60405180910390f35b3360008054906101000a900473ffffffffffffffffffffffffffffffffffffffff1673ffffffffffffffffffffffffffffffffffffffff168173ffffffffffffffffffffffffffffffffffffffff161461021c576040517f08c379a000000000000000000000000000000000000000000000000000000000815260040161021390612045565b60405180910390fd5b8160011515600260008373ffffffffffffffffffffffffffffffffffffffff1673ffffffffffffffffffffffffffffffffffffffff16815260200190815260200160002060009054906101000a900460ff161515146102b0576040517f08c379a00000000000000000000000000000000000000000000000000000000081526004016102a790612065565b60405180910390fd5b82600160028111156102eb577f4e487b7100000000000000000000000000000000000000000000000000000000600052602160045260246000fd5b600160008373ffffffffffffffffffffffffffffffffffffffff1673ffffffffffffffffffffffffffffffffffffffff16815260200190815260200160002060040160009054906101000a900460ff166002811115610373577f4e487b7100000000000000000000000000000000000000000000000000000000600052602160045260246000fd5b146103b3576040517f08c379a00000000000000000000000000000000000000000000000000000000081526004016103aa90612025565b60405180910390fd5b6000600160008673ffffffffffffffffffffffffffffffffffffffff1673ffffffffffffffffffffffffffffffffffffffff1681526020019081526020016000206040518060a00160405290816000820160009054906101000a900473ffffffffffffffffffffffffffffffffffffffff1673ffffffffffffffffffffffffffffffffffffffff1673ffffffffffffffffffffffffffffffffffffffff1681526020016001820160009054906101000a900473ffffffffffffffffffffffffffffffffffffffff1673ffffffffffffffffffffffffffffffffffffffff1673ffffffffffffffffffffffffffffffffffffffff16815260200160028201548152602001600382015481526020016004820160009054906101000a900460ff16600281111561050a577f4e487b7100000000000000000000000000000000000000000000000000000000600052602160045260246000fd5b6002811115610542577f4e487b7100000000000000000000000000000000000000000000000000000000600052602160045260246000fd5b815250509050600081604001519050816020015173ffffffffffffffffffffffffffffffffffffffff166108fc829081150290604051600060405180830381858888f1935050505015801561059b573d6000803e3d6000fd5b50600160008773ffffffffffffffffffffffffffffffffffffffff1673ffffffffffffffffffffffffffffffffffffffff168152602001908152602001600020600080820160006101000a81549073ffffffffffffffffffffffffffffffffffffffff02191690556001820160006101000a81549073ffffffffffffffffffffffffffffffffffffffff0219169055600282016000905560038201600090556004820160006101000a81549060ff02191690555050600260008773ffffffffffffffffffffffffffffffffffffffff1673ffffffffffffffffffffffffffffffffffffffff16815260200190815260200160002060006101000a81549060ff02191690557f38da4dbd4a668c1f1102fc774d28c740ea146218afde0ff960e9af54bc8e7215866040516106ce9190611fa7565b60405180910390a1505050505050565b6106e6611be3565b8160011515600260008373ffffffffffffffffffffffffffffffffffffffff1673ffffffffffffffffffffffffffffffffffffffff16815260200190815260200160002060009054906101000a900460ff1615151461077a576040517f08c379a000000000000000000000000000000000000000000000000000000000815260040161077190612065565b60405180910390fd5b600160008473ffffffffffffffffffffffffffffffffffffffff1673ffffffffffffffffffffffffffffffffffffffff1681526020019081526020016000206040518060a00160405290816000820160009054906101000a900473ffffffffffffffffffffffffffffffffffffffff1673ffffffffffffffffffffffffffffffffffffffff1673ffffffffffffffffffffffffffffffffffffffff1681526020016001820160009054906101000a900473ffffffffffffffffffffffffffffffffffffffff1673ffffffffffffffffffffffffffffffffffffffff1673ffffffffffffffffffffffffffffffffffffffff16815260200160028201548152602001600382015481526020016004820160009054906101000a900460ff1660028111156108cf577f4e487b7100000000000000000000000000000000000000000000000000000000600052602160045260246000fd5b6002811115610907577f4e487b7100000000000000000000000000000000000000000000000000000000600052602160045260246000fd5b81525050915050919050565b3360011515600260008373ffffffffffffffffffffffffffffffffffffffff1673ffffffffffffffffffffffffffffffffffffffff16815260200190815260200160002060009054906101000a900460ff161515146109a7576040517f08c379a000000000000000000000000000000000000000000000000000000000815260040161099e90612065565b60405180910390fd5b336000600160008373ffffffffffffffffffffffffffffffffffffffff1673ffffffffffffffffffffffffffffffffffffffff1681526020019081526020016000206040518060a00160405290816000820160009054906101000a900473ffffffffffffffffffffffffffffffffffffffff1673ffffffffffffffffffffffffffffffffffffffff1673ffffffffffffffffffffffffffffffffffffffff1681526020016001820160009054906101000a900473ffffffffffffffffffffffffffffffffffffffff1673ffffffffffffffffffffffffffffffffffffffff1673ffffffffffffffffffffffffffffffffffffffff16815260200160028201548152602001600382015481526020016004820160009054906101000a900460ff166002811115610aff577f4e487b7100000000000000000000000000000000000000000000000000000000600052602160045260246000fd5b6002811115610b37577f4e487b7100000000000000000000000000000000000000000000000000000000600052602160045260246000fd5b815250509050600280811115610b76577f4e487b7100000000000000000000000000000000000000000000000000000000600052602160045260246000fd5b81608001516002811115610bb3577f4e487b7100000000000000000000000000000000000000000000000000000000600052602160045260246000fd5b14610bf3576040517f08c379a0000000000000000000000000000000000000000000000000000000008152600401610bea90612085565b60405180910390fd5b336000600160008373ffffffffffffffffffffffffffffffffffffffff1673ffffffffffffffffffffffffffffffffffffffff1681526020019081526020016000206040518060a00160405290816000820160009054906101000a900473ffffffffffffffffffffffffffffffffffffffff1673ffffffffffffffffffffffffffffffffffffffff1673ffffffffffffffffffffffffffffffffffffffff1681526020016001820160009054906101000a900473ffffffffffffffffffffffffffffffffffffffff1673ffffffffffffffffffffffffffffffffffffffff1673ffffffffffffffffffffffffffffffffffffffff16815260200160028201548152602001600382015481526020016004820160009054906101000a900460ff166002811115610d4b577f4e487b7100000000000000000000000000000000000000000000000000000000600052602160045260246000fd5b6002811115610d83577f4e487b7100000000000000000000000000000000000000000000000000000000600052602160045260246000fd5b81525050905062015180816060015142610d9d9190612137565b1015610dde576040517f08c379a0000000000000000000000000000000000000000000000000000000008152600401610dd5906120a5565b60405180910390fd5b6000600160003373ffffffffffffffffffffffffffffffffffffffff1673ffffffffffffffffffffffffffffffffffffffff1681526020019081526020016000206040518060a00160405290816000820160009054906101000a900473ffffffffffffffffffffffffffffffffffffffff1673ffffffffffffffffffffffffffffffffffffffff1673ffffffffffffffffffffffffffffffffffffffff1681526020016001820160009054906101000a900473ffffffffffffffffffffffffffffffffffffffff1673ffffffffffffffffffffffffffffffffffffffff1673ffffffffffffffffffffffffffffffffffffffff16815260200160028201548152602001600382015481526020016004820160009054906101000a900460ff166002811115610f35577f4e487b7100000000000000000000000000000000000000000000000000000000600052602160045260246000fd5b6002811115610f6d577f4e487b7100000000000000000000000000000000000000000000000000000000600052602160045260246000fd5b815250509050806000015173ffffffffffffffffffffffffffffffffffffffff166108fc82604001519081150290604051600060405180830381858888f19350505050158015610fc1573d6000803e3d6000fd5b50600160003373ffffffffffffffffffffffffffffffffffffffff1673ffffffffffffffffffffffffffffffffffffffff168152602001908152602001600020600080820160006101000a81549073ffffffffffffffffffffffffffffffffffffffff02191690556001820160006101000a81549073ffffffffffffffffffffffffffffffffffffffff0219169055600282016000905560038201600090556004820160006101000a81549060ff02191690555050600260003373ffffffffffffffffffffffffffffffffffffffff1673ffffffffffffffffffffffffffffffffffffffff16815260200190815260200160002060006101000a81549060ff02191690557f38da4dbd4a668c1f1102fc774d28c740ea146218afde0ff960e9af54bc8e721581600001516040516110f89190611f4b565b60405180910390a1505050505050565b3360011515600260008373ffffffffffffffffffffffffffffffffffffffff1673ffffffffffffffffffffffffffffffffffffffff16815260200190815260200160002060009054906101000a900460ff1615151461119c576040517f08c379a000000000000000000000000000000000000000000000000000000000815260040161119390612065565b60405180910390fd5b336000600160008373ffffffffffffffffffffffffffffffffffffffff1673ffffffffffffffffffffffffffffffffffffffff1681526020019081526020016000206040518060a00160405290816000820160009054906101000a900473ffffffffffffffffffffffffffffffffffffffff1673ffffffffffffffffffffffffffffffffffffffff1673ffffffffffffffffffffffffffffffffffffffff1681526020016001820160009054906101000a900473ffffffffffffffffffffffffffffffffffffffff1673ffffffffffffffffffffffffffffffffffffffff1673ffffffffffffffffffffffffffffffffffffffff16815260200160028201548152602001600382015481526020016004820160009054906101000a900460ff1660028111156112f4577f4e487b7100000000000000000000000000000000000000000000000000000000600052602160045260246000fd5b600281111561132c577f4e487b7100000000000000000000000000000000000000000000000000000000600052602160045260246000fd5b81525050905060028081111561136b577f4e487b7100000000000000000000000000000000000000000000000000000000600052602160045260246000fd5b816080015160028111156113a8577f4e487b7100000000000000000000000000000000000000000000000000000000600052602160045260246000fd5b146113e8576040517f08c379a00000000000000000000000000000000000000000000000000000000081526004016113df90612085565b60405180910390fd5b60018060003373ffffffffffffffffffffffffffffffffffffffff1673ffffffffffffffffffffffffffffffffffffffff16815260200190815260200160002060040160006101000a81548160ff02191690836002811115611473577f4e487b7100000000000000000000000000000000000000000000000000000000600052602160045260246000fd5b02179055507f38da4dbd4a668c1f1102fc774d28c740ea146218afde0ff960e9af54bc8e7215336040516114a79190611fd5565b60405180910390a1505050565b600047905090565b3360001515600260008373ffffffffffffffffffffffffffffffffffffffff1673ffffffffffffffffffffffffffffffffffffffff16815260200190815260200160002060009054906101000a900460ff16151514611550576040517f08c379a0000000000000000000000000000000000000000000000000000000008152600401611547906120c5565b60405180910390fd5b61155981611b88565b600033905060006040518060a001604052808373ffffffffffffffffffffffffffffffffffffffff1681526020018573ffffffffffffffffffffffffffffffffffffffff1681526020013481526020014281526020016002808111156115e8577f4e487b7100000000000000000000000000000000000000000000000000000000600052602160045260246000fd5b815250905080600160008473ffffffffffffffffffffffffffffffffffffffff1673ffffffffffffffffffffffffffffffffffffffff16815260200190815260200160002060008201518160000160006101000a81548173ffffffffffffffffffffffffffffffffffffffff021916908373ffffffffffffffffffffffffffffffffffffffff16021790555060208201518160010160006101000a81548173ffffffffffffffffffffffffffffffffffffffff021916908373ffffffffffffffffffffffffffffffffffffffff160217905550604082015181600201556060820151816003015560808201518160040160006101000a81548160ff02191690836002811115611720577f4e487b7100000000000000000000000000000000000000000000000000000000600052602160045260246000fd5b02179055509050507f38da4dbd4a668c1f1102fc774d28c740ea146218afde0ff960e9af54bc8e7215816000015160405161175b9190611f79565b60405180910390a150505050565b60608160011515600260008373ffffffffffffffffffffffffffffffffffffffff1673ffffffffffffffffffffffffffffffffffffffff16815260200190815260200160002060009054906101000a900460ff161515146117ff576040517f08c379a00000000000000000000000000000000000000000000000000000000081526004016117f690612065565b60405180910390fd5b6000600160008573ffffffffffffffffffffffffffffffffffffffff1673ffffffffffffffffffffffffffffffffffffffff1681526020019081526020016000206040518060a00160405290816000820160009054906101000a900473ffffffffffffffffffffffffffffffffffffffff1673ffffffffffffffffffffffffffffffffffffffff1673ffffffffffffffffffffffffffffffffffffffff1681526020016001820160009054906101000a900473ffffffffffffffffffffffffffffffffffffffff1673ffffffffffffffffffffffffffffffffffffffff1673ffffffffffffffffffffffffffffffffffffffff16815260200160028201548152602001600382015481526020016004820160009054906101000a900460ff166002811115611956577f4e487b7100000000000000000000000000000000000000000000000000000000600052602160045260246000fd5b600281111561198e577f4e487b7100000000000000000000000000000000000000000000000000000000600052602160045260246000fd5b8152505090506060600060028111156119d0577f4e487b7100000000000000000000000000000000000000000000000000000000600052602160045260246000fd5b82608001516002811115611a0d577f4e487b7100000000000000000000000000000000000000000000000000000000600052602160045260246000fd5b1415611a4c576040518060400160405280600881526020017f696e61637469766500000000000000000000000000000000000000000000000081525090505b60016002811115611a86577f4e487b7100000000000000000000000000000000000000000000000000000000600052602160045260246000fd5b82608001516002811115611ac3577f4e487b7100000000000000000000000000000000000000000000000000000000600052602160045260246000fd5b1415611ae55760405180606001604052806035815260200161273e6035913990505b600280811115611b1e577f4e487b7100000000000000000000000000000000000000000000000000000000600052602160045260246000fd5b82608001516002811115611b5b577f4e487b7100000000000000000000000000000000000000000000000000000000600052602160045260246000fd5b1415611b7d576040518060600160405280602581526020016127196025913990505b809350505050919050565b6001600260008373ffffffffffffffffffffffffffffffffffffffff1673ffffffffffffffffffffffffffffffffffffffff16815260200190815260200160002060006101000a81548160ff02191690831515021790555050565b6040518060a00160405280600073ffffffffffffffffffffffffffffffffffffffff168152602001600073ffffffffffffffffffffffffffffffffffffffff168152602001600081526020016000815260200160006002811115611c70577f4e487b7100000000000000000000000000000000000000000000000000000000600052602160045260246000fd5b81525090565b600081359050611c85816126ea565b92915050565b600081359050611c9a81612701565b92915050565b600060208284031215611cb257600080fd5b6000611cc084828501611c76565b91505092915050565b600060208284031215611cdb57600080fd5b6000611ce984828501611c8b565b91505092915050565b611cfb816121cc565b82525050565b611d0a8161217d565b82525050565b611d198161216b565b82525050565b611d28816121de565b82525050565b6000611d398261211b565b611d438185612126565b9350611d53818560208601612214565b611d5c816122a5565b840191505092915050565b6000611d74602f83612126565b9150611d7f826122b6565b604082019050919050565b6000611d97604d83612126565b9150611da282612305565b606082019050919050565b6000611dba602f83612126565b9150611dc58261237a565b604082019050919050565b6000611ddd604683612126565b9150611de8826123c9565b606082019050919050565b6000611e00609183612126565b9150611e0b8261243e565b60a082019050919050565b6000611e23605383612126565b9150611e2e826124ff565b606082019050919050565b6000611e46604383612126565b9150611e5182612574565b606082019050919050565b6000611e69603783612126565b9150611e74826125e9565b604082019050919050565b6000611e8c603783612126565b9150611e9782612638565b604082019050919050565b6000611eaf603d83612126565b9150611eba82612687565b604082019050919050565b60a082016000820151611edb6000850182611d01565b506020820151611eee6020850182611d01565b506040820151611f016040850182611f2d565b506060820151611f146060850182611f2d565b506080820151611f276080850182611d1f565b50505050565b611f36816121c2565b82525050565b611f45816121c2565b82525050565b6000604082019050611f606000830184611cf2565b8181036020830152611f7181611dd0565b905092915050565b6000604082019050611f8e6000830184611cf2565b8181036020830152611f9f81611e39565b905092915050565b6000604082019050611fbc6000830184611d10565b8181036020830152611fcd81611d8a565b905092915050565b6000604082019050611fea6000830184611d10565b8181036020830152611ffb81611df3565b905092915050565b6000602082019050818103600083015261201d8184611d2e565b905092915050565b6000602082019050818103600083015261203e81611d67565b9050919050565b6000602082019050818103600083015261205e81611dad565b9050919050565b6000602082019050818103600083015261207e81611e16565b9050919050565b6000602082019050818103600083015261209e81611e5c565b9050919050565b600060208201905081810360008301526120be81611e7f565b9050919050565b600060208201905081810360008301526120de81611ea2565b9050919050565b600060a0820190506120fa6000830184611ec5565b92915050565b60006020820190506121156000830184611f3c565b92915050565b600081519050919050565b600082825260208201905092915050565b6000612142826121c2565b915061214d836121c2565b9250828210156121605761215f612247565b5b828203905092915050565b6000612176826121a2565b9050919050565b6000612188826121a2565b9050919050565b600081905061219d826126d6565b919050565b600073ffffffffffffffffffffffffffffffffffffffff82169050919050565b6000819050919050565b60006121d7826121f0565b9050919050565b60006121e98261218f565b9050919050565b60006121fb82612202565b9050919050565b600061220d826121a2565b9050919050565b60005b83811015612232578082015181840152602081019050612217565b83811115612241576000848401525b50505050565b7f4e487b7100000000000000000000000000000000000000000000000000000000600052601160045260246000fd5b7f4e487b7100000000000000000000000000000000000000000000000000000000600052602160045260246000fd5b6000601f19601f8301169050919050565b7f546865206465706f7369746f7220686173206e6f74207965742066696e616c6960008201527f7a656420746865207061796d656e740000000000000000000000000000000000602082015250565b7f7061796d656e742073656e7420746f20726563697069656e742c20537461747560008201527f7320666f722074686973206465706f7369746f722773206465706f736974652060208201527f6973203a20494e41435449564500000000000000000000000000000000000000604082015250565b7f536f7272792c206f6e6c79206172626974726f7220686173206163636573732060008201527f746f207468697320666561747572650000000000000000000000000000000000602082015250565b7f4465706f736974652057495448445241574e2c2053746174757320666f72207460008201527f686973206465706f7369746f722773206465706f73697465206973203a20494e60208201527f4143544956450000000000000000000000000000000000000000000000000000604082015250565b7f7061796d656e7420666f7220726563697069656e7420434f4e4649524d45442c60008201527f2053746174757320666f722074686973206465706f7369746f7227732064657060208201527f6f73697465206973203a2046494e414c495a455f5041594d454e54202c20706c60408201527f65617365207761697420666f7220746865206172626974726f7220746f20756e60608201527f6c6f636b20746865206465706f73697465000000000000000000000000000000608082015250565b7f54686973206465706f7369746f722061646472657373206973206e6f7420766160008201527f6c696420666f72207468697320616374696f6e2c206f7220746865206465706f60208201527f7369746f7220646f6573206e6f74206578697400000000000000000000000000604082015250565b7f4465706f7369746520435245415445442c2053746174757320666f722074686960008201527f73206465706f7369746f722773206465706f73697465206973203a2050454e4460208201527f494e470000000000000000000000000000000000000000000000000000000000604082015250565b7f4163636573732064656e6965642c2063616e206e6f7420706572666f726d206160008201527f6374696f6e20666f722074686973206465706f73697465000000000000000000602082015250565b7f416d6f756e742063616e206e6f742062652077697468647261776e207769746860008201527f696e20323420686f757273206f66206465706f73697465000000000000000000602082015250565b7f546865726520697320616c726561647920616e20696e636f6d706c657465207460008201527f72616e73616374696f6e20666f722074686973206465706f7369746f72000000602082015250565b600381106126e7576126e6612276565b5b50565b6126f38161216b565b81146126fe57600080fd5b50565b61270a8161217d565b811461271557600080fd5b5056fe70656e64696e6720636f6e6669726d6174696f6e20627920746865206465706f7369746f727061796d656e742066696e616c697a65642c2077616974696e6720666f7220746865206172627269746f7220746f20756e6c6f636ba26469706673582212206ac63ea2e39a9bcb27b90df7aedabb94c9b6549249223f58d2bae09bb6f1781f64736f6c63430008040033",
  "immutableReferences": {},
  "source": "// SPDX-License-Identifier: MIT\r\npragma solidity ^0.8.4;\r\n\r\ncontract Escrow{\r\n\r\n\r\n    \r\n    \r\n// Section1 ============================== > Constructor\r\n    \r\n    \r\n    /*\r\n        making them admin of the contract so that certain features can only be available to them\r\n    */\r\n    constructor(){\r\n        arbitror = msg.sender;  \r\n    }\r\n\r\n\r\n    \r\n   \r\n// Section2 ============================== > State Variables \r\n    \r\n    address arbitror;\r\n    \r\n    /*\r\n        This enum is to identify the status of a deposite\r\n    */\r\n    enum CONFIRMATION_STATUS { \r\n        INACTIVE            ,           // 0, this is the default status \r\n        FINALIZE_PAYMENT    ,           // 2, when depositor confirms that recipient can recieve the money\r\n        PENDING                         // 5, when the deposite is still active but the payment to the recipient is yet pending\r\n    }\r\n    \r\n    \r\n    struct Deposite{\r\n        address payable depositor               ;\r\n        address payable recipient               ;\r\n        uint amount                             ;\r\n        uint depositeTime                       ;\r\n        CONFIRMATION_STATUS confirmation_status ;\r\n    }\r\n    \r\n    \r\n    /* \r\n        to have a mapping of all the deposites,deposites are identified by the depositor's address\r\n    */\r\n    mapping (address => Deposite) deposites;                \r\n    \r\n    \r\n    /* \r\n        to check if the depositor has any pending deposite, in case 'yes' they will not be able to deposite any \r\n        further ammount unless they withdraw or their recipient recieves the money\r\n    */\r\n    mapping (address => bool) disabled_depositor;           \r\n    \r\n    \r\n    /* \r\n        updates on the deposites \r\n    */\r\n    event DepositeStatusUpdate(address depositor_address, string deposite_status); \r\n    \r\n \r\n \r\n    \r\n// Section3 ============================== > Moifiers\r\n    \r\n    /* \r\n        modifier:1 -> this confirms that the dipositor is unable to deposite more than once,\r\n        they can only deposite when they don't have any pending payment or if they cancel their previous deposite \r\n    */\r\n    modifier checkIfDepositorCanDeposite(address depositorAddress){\r\n        require(disabled_depositor[depositorAddress] == false, \"There is already an incomplete transaction for this depositor\");\r\n        disableDepositorToDeposite(depositorAddress);\r\n        _;\r\n    }\r\n    \r\n    \r\n    /* \r\n        modifier:2 -> this checks if the invoker of the funciton is the arbritror or not \r\n    */\r\n    modifier checkIfArbitror(address _requester){\r\n        require(_requester == arbitror, \"Sorry, only arbitror has access to this feature\");\r\n        _;\r\n    }\r\n    \r\n    \r\n    /*\r\n        modifier:3 -> this checks if the depositor is trying to withdraw their deposite within 24 hours or not \r\n    */\r\n    modifier withdrawalTimePermmission(address _requester){\r\n        Deposite memory _depositeForThisAddress = deposites[_requester];\r\n        require(block.timestamp - _depositeForThisAddress.depositeTime >= 1 days, \"Amount can not be withdrawn within 24 hours of deposite\"); // cheking needs to be done\r\n        _;\r\n    }\r\n    \r\n    \r\n    /*\r\n        modifier:4 -> this modifier ensures that the arbritror won't be able to send the money to the \r\n        recipent until the depositor confirms it \r\n    */\r\n    modifier depositeStatusPermission( address _requester){\r\n        Deposite memory _depositeForThisAddress = deposites[_requester];\r\n        require(_depositeForThisAddress.confirmation_status == CONFIRMATION_STATUS.PENDING, \"Access denied, can not perform action for this deposite\");\r\n        _;\r\n    }\r\n    \r\n    \r\n    /*\r\n        modifier:5 -> this checks if the depositor is valid one, this modifier is a bit redundant \r\n        but there might come certain situations when this could be useful \r\n    */\r\n    modifier checkIfDipositorIsValid(address _requester){\r\n        require(disabled_depositor[_requester] == true, \"This depositor address is not valid for this action, or the depositor does not exit\");\r\n        _;\r\n    }\r\n    \r\n    \r\n    /*\r\n        modifier:6 -> checks if the depositor has finalized the payment, after this, \r\n        the arbitror can unlock the money for the recipient\r\n    */\r\n    modifier checkIfPaymentHasBeenConfirmedByDepositor(address _depositor){\r\n        require(deposites[_depositor].confirmation_status == CONFIRMATION_STATUS.FINALIZE_PAYMENT, \"The depositor has not yet finalized the payment\");\r\n        _;\r\n    }\r\n    \r\n\r\n\r\n\r\n    \r\n// Section4 ============================== > Functions \r\n   \r\n   \r\n    /*\r\n        function:1 ->\r\n        1. checks if the depositor has permission to deposite\r\n        2. creates the deposite with all necessary informations\r\n        3. adds the deposite information in the map , where depositor's address is the key and the deposite is the value. This deposite can be tracked again with the depositor's id only\r\n        4. emits an event after successfully createing a new deposite \r\n    */\r\n    function depositeCreate(address payable _recipient) external \r\n                                                        payable \r\n                                                        checkIfDepositorCanDeposite(msg.sender){\r\n        address payable _depositor = payable(msg.sender);\r\n        Deposite memory _deposite = Deposite(\r\n                                        {\r\n                                            depositor               :   _depositor,\r\n                                            recipient               :   _recipient,\r\n                                            amount                  :   msg.value,\r\n                                            depositeTime            :   block.timestamp,\r\n                                            confirmation_status     :   CONFIRMATION_STATUS.PENDING \r\n                                        }\r\n                                    );\r\n        deposites[_depositor] = _deposite;\r\n        emit DepositeStatusUpdate(_deposite.depositor, \"Deposite CREATED, Status for this depositor's deposite is : PENDING\");\r\n    }\r\n    \r\n    \r\n    /*\r\n        function:2 ->\r\n        This function helps the depositor to change the status of the deposite and finalize the payment, so that the arbritror can\r\n        unlock the deposite and send it to the recipient. After successful execution, this function emits an event so that the\r\n        arbritror may become aware of the confimation(arbritor needs to listen to the event from outside the network) \r\n    */\r\n    function confirmServiceDelivery() external \r\n                                      checkIfDipositorIsValid(msg.sender)  \r\n                                      depositeStatusPermission(msg.sender) {\r\n        deposites[msg.sender].confirmation_status = CONFIRMATION_STATUS.FINALIZE_PAYMENT;\r\n        emit DepositeStatusUpdate(msg.sender, \"payment for recipient CONFIRMED, Status for this depositor's deposite is : FINALIZE_PAYMENT , please wait for the arbitror to unlock the deposite\");\r\n    }\r\n    \r\n    \r\n    /*\r\n        function:3 ->\r\n        This function can be called by the arbritor after the depositor confrims that the recipient can be payed \r\n    */\r\n    function unlockDeposite(address _depositor) external \r\n                                                checkIfArbitror(msg.sender) \r\n                                                checkIfDipositorIsValid(_depositor) \r\n                                                checkIfPaymentHasBeenConfirmedByDepositor( _depositor) {                 \r\n        Deposite memory _deposite = deposites[_depositor];\r\n        uint amount_to_be_transferred = _deposite.amount;\r\n        _deposite.recipient.transfer(amount_to_be_transferred);\r\n        delete deposites[_depositor];\r\n        delete disabled_depositor[_depositor];\r\n        emit DepositeStatusUpdate(_depositor,  \"payment sent to recipient, Status for this depositor's deposite is : INACTIVE\");\r\n    }\r\n    \r\n    \r\n    /* \r\n       function:4 ->\r\n       After 24 hours of deposite the depositor can invoke this fuction to withdraw their deposite if they feel that they \r\n       they no longer want to pay the recipent \r\n    */\r\n    function withdrawDeposite() external \r\n                                checkIfDipositorIsValid(msg.sender) \r\n                                depositeStatusPermission(msg.sender)\r\n                                withdrawalTimePermmission(msg.sender) {    \r\n        Deposite memory _deposite = deposites[msg.sender];        \r\n        _deposite.depositor.transfer(_deposite.amount);\r\n        delete deposites[msg.sender];\r\n        delete disabled_depositor[msg.sender];\r\n        emit DepositeStatusUpdate(_deposite.depositor, \"Deposite WITHDRAWN, Status for this depositor's deposite is : INACTIVE\");\r\n    }\r\n    \r\n    \r\n    /* \r\n        function:5 -> \r\n        The arbitror can call this function if they want to see the current status of any deposite \r\n    */\r\n    function getDepositStatus(address _depositorAddress) external \r\n                                                         view \r\n                                                         checkIfDipositorIsValid(_depositorAddress) \r\n                                                         returns(string memory){ \r\n        Deposite memory deposite = deposites[_depositorAddress];\r\n        string memory status;\r\n        if(deposite.confirmation_status == CONFIRMATION_STATUS.INACTIVE){\r\n            status = \"inactive\";\r\n        }\r\n        if(deposite.confirmation_status == CONFIRMATION_STATUS.FINALIZE_PAYMENT){\r\n            status = \"payment finalized, waiting for the arbritor to unlock\";\r\n        }\r\n        if(deposite.confirmation_status == CONFIRMATION_STATUS.PENDING){\r\n            status = \"pending confirmation by the depositor\";\r\n        }\r\n        return status;\r\n    }\r\n    \r\n    \r\n    /* \r\n        function:6 ->\r\n       This method returns the balance of this contract, anyone can call this function to chek the balance \r\n    */\r\n    function getContractBalance() external \r\n                                  view \r\n                                  returns(uint){\r\n        return address(this).balance;\r\n    }\r\n    \r\n    \r\n    /*\r\n        function:7 ->\r\n        This function is used to put the depositor in the disabled list, so that they may not be able to deposite until they're\r\n        removed from the list \r\n    */\r\n    function disableDepositorToDeposite(address _depositorAddress) internal{\r\n        disabled_depositor[_depositorAddress] = true;\r\n    }\r\n    \r\n    /*\r\n        function:8 ->\r\n        This function is used to get the deposite information\r\n    */\r\n    function getDepositInfo(address _depositorAddress) external \r\n                                                         view \r\n                                                         checkIfDipositorIsValid(_depositorAddress) \r\n                                                         returns(Deposite memory){ \r\n        return deposites[_depositorAddress];\r\n    }\r\n    \r\n\r\n}",
  "sourcePath": "C:\\Users\\kamru\\Desktop\\Blockchain Assignment\\Solidity Task\\contracts\\Escrow.sol",
  "compiler": {
    "name": "solc",
    "version": "0.8.4+commit.c7e474f2.Emscripten.clang"
  },
  "schemaVersion": "3.4.3",
  "updatedAt": "2021-10-13T01:00:19.333Z",
  "networkType": "ethereum",
  "devdoc": {
    "kind": "dev",
    "methods": {},
    "version": 1
  },
  "userdoc": {
    "kind": "user",
    "methods": {},
    "version": 1
  }
}